{
  "contractName": "EcommerceStore",
  "abi": [
    {
      "constant": true,
      "inputs": [
        {
          "name": "_productId",
          "type": "uint256"
        },
        {
          "name": "_category",
          "type": "string"
        },
        {
          "name": "_imageLink",
          "type": "string"
        },
        {
          "name": "_descLink",
          "type": "string"
        },
        {
          "name": "_auctionStartTime",
          "type": "uint256"
        },
        {
          "name": "_auctionEndTime",
          "type": "uint256"
        },
        {
          "name": "_startPrice",
          "type": "uint256"
        },
        {
          "name": "_productCondition",
          "type": "uint256"
        }
      ],
      "name": "totalBids",
      "outputs": [
        {
          "name": "",
          "type": "uint256"
        }
      ],
      "payable": false,
      "stateMutability": "view",
      "type": "function"
    },
    {
      "inputs": [
        {
          "name": "_name",
          "type": "string"
        },
        {
          "name": "_category",
          "type": "string"
        },
        {
          "name": "_imageLink",
          "type": "string"
        },
        {
          "name": "_descLink",
          "type": "string"
        },
        {
          "name": "_auctionStartTime",
          "type": "uint256"
        },
        {
          "name": "_auctionEndTime",
          "type": "uint256"
        },
        {
          "name": "_startPrice",
          "type": "uint256"
        },
        {
          "name": "_productCondition",
          "type": "uint256"
        }
      ],
      "payable": false,
      "stateMutability": "nonpayable",
      "type": "function",
      "constant": false,
      "name": "addProductToStore",
      "outputs": [
        {
          "name": "",
          "type": "uint256"
        },
        {
          "name": "",
          "type": "string"
        },
        {
          "name": "",
          "type": "string"
        },
        {
          "name": "",
          "type": "string"
        },
        {
          "name": "",
          "type": "string"
        },
        {
          "name": "",
          "type": "uint256"
        },
        {
          "name": "",
          "type": "uint256"
        },
        {
          "name": "",
          "type": "uint256"
        },
        {
          "name": "",
          "type": "uint8"
        },
        {
          "name": "",
          "type": "uint8"
        }
      ]
    },
    {
      "constant": true,
      "inputs": [
        {
          "name": "_productId",
          "type": "uint256"
        }
      ],
      "name": "getProduct",
      "outputs": [
        {
          "name": "",
          "type": "uint256"
        },
        {
          "name": "",
          "type": "string"
        },
        {
          "name": "",
          "type": "string"
        },
        {
          "name": "",
          "type": "string"
        },
        {
          "name": "",
          "type": "string"
        },
        {
          "name": "",
          "type": "uint256"
        },
        {
          "name": "",
          "type": "uint256"
        },
        {
          "name": "",
          "type": "uint256"
        },
        {
          "name": "",
          "type": "uint8"
        },
        {
          "name": "",
          "type": "uint8"
        }
      ],
      "payable": false,
      "stateMutability": "view",
      "type": "function"
    },
    {
      "inputs": [],
      "payable": false,
      "stateMutability": "view",
      "type": "function",
      "constant": true,
      "name": "productIndex",
      "outputs": [
        {
          "name": "",
          "type": "uint256"
        }
      ]
    },
    {
      "constant": true,
      "inputs": [
        {
          "name": "_productId",
          "type": "uint256"
        }
      ],
      "name": "highestBidderInfo",
      "outputs": [
        {
          "name": "",
          "type": "address"
        },
        {
          "name": "",
          "type": "uint256"
        },
        {
          "name": "",
          "type": "uint256"
        }
      ],
      "payable": false,
      "stateMutability": "view",
      "type": "function"
    },
    {
      "constant": false,
      "inputs": [
        {
          "name": "_productId",
          "type": "uint256"
        },
        {
          "name": "_bid",
          "type": "bytes32"
        }
      ],
      "name": "bid",
      "outputs": [
        {
          "name": "",
          "type": "bool"
        }
      ],
      "payable": true,
      "stateMutability": "payable",
      "type": "function"
    },
    {
      "constant": false,
      "inputs": [
        {
          "name": "_productId",
          "type": "uint256"
        },
        {
          "name": "_amount",
          "type": "string"
        },
        {
          "name": "_secret",
          "type": "string"
        }
      ],
      "name": "revealBid",
      "outputs": [],
      "payable": false,
      "stateMutability": "nonpayable",
      "type": "function"
    },
    {
      "inputs": [],
      "payable": false,
      "stateMutability": "nonpayable",
      "type": "constructor"
    }
  ],
  "bytecode": "0x6060604052341561000f57600080fd5b600080556119ac806100226000396000f300606060405236156100805763ffffffff7c010000000000000000000000000000000000000000000000000000000060003504166328e3d1908114610085578063a508b955146100ad578063b9db15b4146101d9578063c897d5a6146103e8578063ce818ea9146103fb578063ea1591bb14610447578063f85f196e14610469575b600080fd5b341561009057600080fd5b61009b600435610501565b60405190815260200160405180910390f35b34156100b857600080fd5b6101d760046024813581810190830135806020601f8201819004810201604051908101604052818152929190602084018383808284378201915050505050509190803590602001908201803590602001908080601f01602080910402602001604051908101604052818152929190602084018383808284378201915050505050509190803590602001908201803590602001908080601f01602080910402602001604051908101604052818152929190602084018383808284378201915050505050509190803590602001908201803590602001908080601f01602080910402602001604051908101604052818152929190602084018383808284375094965050843594602081013594506040810135935060600135915061088a9050565b005b34156101e457600080fd5b6101ef600435610acd565b604051808b8152602001806020018060200180602001806020018a815260200189815260200188815260200187600281111561022757fe5b60ff16815260200186600181111561023b57fe5b60ff16815260200185810385528e818151815260200191508051906020019080838360005b83811015610278578082015183820152602001610260565b50505050905090810190601f1680156102a55780820380516001836020036101000a031916815260200191505b5085810384528d818151815260200191508051906020019080838360005b838110156102db5780820151838201526020016102c3565b50505050905090810190601f1680156103085780820380516001836020036101000a031916815260200191505b5085810383528c818151815260200191508051906020019080838360005b8381101561033e578082015183820152602001610326565b50505050905090810190601f16801561036b5780820380516001836020036101000a031916815260200191505b5085810382528b818151815260200191508051906020019080838360005b838110156103a1578082015183820152602001610389565b50505050905090810190601f1680156103ce5780820380516001836020036101000a031916815260200191505b509e50505050505050505050505050505060405180910390f35b34156103f357600080fd5b61009b610ed0565b341561040657600080fd5b610411600435610ed6565b6040518084600160a060020a0316600160a060020a03168152602001838152602001828152602001935050505060405180910390f35b610455600435602435611275565b604051901515815260200160405180910390f35b341561047457600080fd5b6101d7600480359060446024803590810190830135806020601f8201819004810201604051908101604052818152929190602084018383808284378201915050505050509190803590602001908201803590602001908080601f0160208091040260200160405190810160405281815292919060208401838380828437509496506113b495505050505050565b600061050b611811565b600083815260026020908152604080832054600160a060020a031683526001825280832086845290915290819020906101c09051908101604052908160008201548152602001600182018054600181600116156101000203166002900480601f0160208091040260200160405190810160405280929190818152602001828054600181600116156101000203166002900480156105e95780601f106105be576101008083540402835291602001916105e9565b820191906000526020600020905b8154815290600101906020018083116105cc57829003601f168201915b50505050508152602001600282018054600181600116156101000203166002900480601f01602080910402602001604051908101604052809291908181526020018280546001816001161561010002031660029004801561068b5780601f106106605761010080835404028352916020019161068b565b820191906000526020600020905b81548152906001019060200180831161066e57829003601f168201915b50505050508152602001600382018054600181600116156101000203166002900480601f01602080910402602001604051908101604052809291908181526020018280546001816001161561010002031660029004801561072d5780601f106107025761010080835404028352916020019161072d565b820191906000526020600020905b81548152906001019060200180831161071057829003601f168201915b50505050508152602001600482018054600181600116156101000203166002900480601f0160208091040260200160405190810160405280929190818152602001828054600181600116156101000203166002900480156107cf5780601f106107a4576101008083540402835291602001916107cf565b820191906000526020600020905b8154815290600101906020018083116107b257829003601f168201915b50505091835250506005820154602082015260068201546040820152600782015460608201526008820154600160a060020a03166080820152600982015460a0820152600a82015460c0820152600b82015460e0820152600c8201546101009091019060ff16600281111561084057fe5b600281111561084b57fe5b8152602001600c820160019054906101000a900460ff16600181111561086d57fe5b600181111561087857fe5b90525090506101608101519392505050565b610892611811565b83851061089e57600080fd5b6000805460010190556101c06040519081016040528060005481526020018a81526020018981526020018881526020018781526020018681526020018581526020018481526020016000600160a060020a031681526020016000815260200160008152602001600081526020016000600281111561091857fe5b815260200183600181111561092957fe5b600181111561093457fe5b9052600160a060020a033316600090815260016020908152604080832083548452909152902090915081908151815560208201518160010190805161097d9291602001906118ac565b506040820151816002019080516109989291602001906118ac565b506060820151816003019080516109b39291602001906118ac565b506080820151816004019080516109ce9291602001906118ac565b5060a0820151816005015560c0820151816006015560e0820151816007015561010082015160088201805473ffffffffffffffffffffffffffffffffffffffff1916600160a060020a0392909216919091179055610120820151816009015561014082015181600a015561016082015181600b0155610180820151600c8201805460ff19166001836002811115610a6157fe5b02179055506101a0820151600c8201805461ff001916610100836001811115610a8657fe5b021790555050600080548152600260205260409020805473ffffffffffffffffffffffffffffffffffffffff191633600160a060020a031617905550505050505050505050565b6000610ad761192a565b610adf61192a565b610ae761192a565b610aef61192a565b6000806000806000610aff611811565b60008c815260026020908152604080832054600160a060020a03168352600182528083208f845290915290819020906101c09051908101604052908160008201548152602001600182018054600181600116156101000203166002900480601f016020809104026020016040519081016040528092919081815260200182805460018160011615610100020316600290048015610bdd5780601f10610bb257610100808354040283529160200191610bdd565b820191906000526020600020905b815481529060010190602001808311610bc057829003601f168201915b50505050508152602001600282018054600181600116156101000203166002900480601f016020809104026020016040519081016040528092919081815260200182805460018160011615610100020316600290048015610c7f5780601f10610c5457610100808354040283529160200191610c7f565b820191906000526020600020905b815481529060010190602001808311610c6257829003601f168201915b50505050508152602001600382018054600181600116156101000203166002900480601f016020809104026020016040519081016040528092919081815260200182805460018160011615610100020316600290048015610d215780601f10610cf657610100808354040283529160200191610d21565b820191906000526020600020905b815481529060010190602001808311610d0457829003601f168201915b50505050508152602001600482018054600181600116156101000203166002900480601f016020809104026020016040519081016040528092919081815260200182805460018160011615610100020316600290048015610dc35780601f10610d9857610100808354040283529160200191610dc3565b820191906000526020600020905b815481529060010190602001808311610da657829003601f168201915b50505091835250506005820154602082015260068201546040820152600782015460608201526008820154600160a060020a03166080820152600982015460a0820152600a82015460c0820152600b82015460e0820152600c8201546101009091019060ff166002811115610e3457fe5b6002811115610e3f57fe5b8152602001600c820160019054906101000a900460ff166001811115610e6157fe5b6001811115610e6c57fe5b9052509050805181602001518260400151836060015184608001518560a001518660c001518760e00151886101800151896101a001518898508797508696508595509a509a509a509a509a509a509a509a509a509a50509193959799509193959799565b60005481565b6000806000610ee3611811565b600085815260026020908152604080832054600160a060020a031683526001825280832088845290915290819020906101c09051908101604052908160008201548152602001600182018054600181600116156101000203166002900480601f016020809104026020016040519081016040528092919081815260200182805460018160011615610100020316600290048015610fc15780601f10610f9657610100808354040283529160200191610fc1565b820191906000526020600020905b815481529060010190602001808311610fa457829003601f168201915b50505050508152602001600282018054600181600116156101000203166002900480601f0160208091040260200160405190810160405280929190818152602001828054600181600116156101000203166002900480156110635780601f1061103857610100808354040283529160200191611063565b820191906000526020600020905b81548152906001019060200180831161104657829003601f168201915b50505050508152602001600382018054600181600116156101000203166002900480601f0160208091040260200160405190810160405280929190818152602001828054600181600116156101000203166002900480156111055780601f106110da57610100808354040283529160200191611105565b820191906000526020600020905b8154815290600101906020018083116110e857829003601f168201915b50505050508152602001600482018054600181600116156101000203166002900480601f0160208091040260200160405190810160405280929190818152602001828054600181600116156101000203166002900480156111a75780601f1061117c576101008083540402835291602001916111a7565b820191906000526020600020905b81548152906001019060200180831161118a57829003601f168201915b50505091835250506005820154602082015260068201546040820152600782015460608201526008820154600160a060020a03166080820152600982015460a0820152600a82015460c0820152600b82015460e0820152600c8201546101009091019060ff16600281111561121857fe5b600281111561122357fe5b8152602001600c820160019054906101000a900460ff16600181111561124557fe5b600181111561125057fe5b9052509050610100810151816101200151826101400151935093509350509193909250565b600082815260026020908152604080832054600160a060020a0316835260018252808320858452909152812060058101544210156112b257600080fd5b60068101544211156112c357600080fd5b600781015434116112d357600080fd5b600160a060020a033381166000908152600d830160209081526040808320878452909152902054161561130557600080fd5b60806040519081016040908152600160a060020a03331680835260208084018890523483850152600060608501819052918252600d850181528282208783529052208151815473ffffffffffffffffffffffffffffffffffffffff1916600160a060020a039190911617815560208201518160010155604082015181600201556060820151600391909101805460ff191691151591909117905550600b01805460019081019091559392505050565b6000806113bf61193c565b600086815260026020908152604080832054600160a060020a0316835260018252808320898452909152812060068101549094508190421161140057600080fd5b86866040518083805190602001908083835b602083106114315780518252601f199092019160209182019101611412565b6001836020036101000a038019825116818451161790925250505091909101905082805190602001908083835b6020831061147d5780518252601f19909201916020918201910161145e565b6001836020036101000a038019825116818451161790925250505091909101935060409250505051908190039020600160a060020a0333166000908152600d870160209081526040808320848452909152908190209195506080905190810160409081528254600160a060020a031682526001830154602083015260028301549082015260039091015460ff1615156060820152925060008351600160a060020a03161161152a57600080fd5b82606001511561153957600080fd5b611542876116e5565b9050808360400151101561155c578260400151915061166d565b6008850154600160a060020a031615156115b95760088501805473ffffffffffffffffffffffffffffffffffffffff191633600160a060020a0316179055600985018190556007850154600a86015580604084015103915061166d565b8460090154811115611646576009850154600a86018190556008860154600160a060020a03169080156108fc0290604051600060405180830381858888f19350505050151561160757600080fd5b60088501805473ffffffffffffffffffffffffffffffffffffffff191633600160a060020a03161790556009850181905580604084015103915061166d565b84600a015481111561166557600a85018190556040830151915061166d565b826040015191505b60008211156116db57600160a060020a03331682156108fc0283604051600060405180830381858888f1935050505015156116a757600080fd5b600160a060020a0333166000908152600d8601602090815260408083208784529091529020600301805460ff191660011790555b5050505050505050565b60006116ef61192a565b50816000805b8251811015611809577f300000000000000000000000000000000000000000000000000000000000000083828151811061172b57fe5b016020015160f860020a900460f860020a027effffffffffffffffffffffffffffffffffffffffffffffffffffffffffffff1916101580156117cc57507f390000000000000000000000000000000000000000000000000000000000000083828151811061179557fe5b016020015160f860020a900460f860020a027effffffffffffffffffffffffffffffffffffffffffffffffffffffffffffff191611155b156118015760308382815181106117df57fe5b016020015160f860020a900460f860020a0260f860020a90040382600a020191505b6001016116f5565b509392505050565b6101c0604051908101604052806000815260200161182d61192a565b815260200161183a61192a565b815260200161184761192a565b815260200161185461192a565b81526020016000815260200160008152602001600081526020016000600160a060020a03168152602001600081526020016000815260200160008152602001600060028111156118a057fe5b81526020016000905290565b828054600181600116156101000203166002900490600052602060002090601f016020900481019282601f106118ed57805160ff191683800117855561191a565b8280016001018555821561191a579182015b8281111561191a5782518255916020019190600101906118ff565b50611926929150611963565b5090565b60206040519081016040526000815290565b60806040519081016040908152600080835260208301819052908201819052606082015290565b61197d91905b808211156119265760008155600101611969565b905600a165627a7a72305820c64f9b56b4fc6e289e69ab7474c218bd7706c6f5847782bddac4b589a1165a6a0029",
  "source": "pragma solidity ^0.4.13;\n\ncontract EcommerceStore {\n\tenum ProductStatus { Open, Sold, Unsold }\n\tenum ProductCondition { New, Used }\n\n\tuint public productIndex;\n\tmapping (address => mapping(uint => Product)) stores;\n\tmapping (uint => address) productIdInStore;\n\n\tstruct Bid {\n\t\taddress bidder;\n\t\tuint productId;\n\t\tuint value;\n\t\tbool revealed;\n\t}\n\n\tstruct Product {\n\t\tuint id;\n\t\tstring name;\n\t\tstring category;\n\t\tstring imageLink;\n\t\tstring descLink;\n\t\tuint auctionStartTime;\n\t\tuint auctionEndTime;\n\t\tuint startPrice;\n\t\taddress highestBidder;\n\t\tuint highestBid;\n\t\tuint secondHighestBid;\n\t\tuint totalBids;\n\t\tProductStatus status;\n\t\tProductCondition condition;\t\n\n\t\tmapping(address => mapping (bytes32 => Bid)) bids;\n\t}\n\n\tfunction EcommerceStore() public {\n\t\tproductIndex = 0;\n\t}\n\n\tfunction addProductToStore(string _name,\n\t\t\t\t\t\t\t   string _category,\n\t\t\t\t\t\t\t   string _imageLink,\n\t\t\t\t\t\t\t   string _descLink,\n\t\t\t\t\t\t\t   uint _auctionStartTime,\n\t\t\t\t\t\t\t   uint _auctionEndTime,\n\t\t\t\t\t\t\t   uint _startPrice,\n\t\t\t\t\t\t\t   uint _productCondition) public {\n\t\trequire(_auctionStartTime < _auctionEndTime);\n\t\tproductIndex += 1;\n\t\tProduct memory product = Product(productIndex, _name, _category, _imageLink, _descLink, \n\t\t\t_auctionStartTime, _auctionEndTime, _startPrice, 0, 0, 0, 0, ProductStatus.Open, ProductCondition(_productCondition));\n\t\tstores[msg.sender][productIndex] = product;\n\t\tproductIdInStore[productIndex] = msg.sender;\n\t}\n\n\tfunction getProduct(uint _productId) view public returns (uint, string, string, string, string, uint, uint, uint, ProductStatus, ProductCondition) {\n\t\tProduct memory product = stores[productIdInStore[_productId]][_productId];\n\t\treturn (product.id, product.name, product.category,\n\t\t\t\tproduct.imageLink, product.descLink, \n\t\t\t\tproduct.auctionStartTime, product.auctionEndTime,\n\t\t\t\tproduct.startPrice, product.status, product.condition);\n\t}\n\n\tfunction bid(uint _productId, bytes32 _bid) payable public returns (bool) {\n\t\tProduct storage product = stores[productIdInStore[_productId]][_productId];\n\t\trequire(now >= product.auctionStartTime);\n\t\trequire(now <= product.auctionEndTime);\n\t\trequire(msg.value > product.startPrice);\n\t\trequire(product.bids[msg.sender][_bid].bidder == 0);\n\n\t\tproduct.bids[msg.sender][_bid] = Bid(msg.sender, _productId, msg.value, false);\n\t\tproduct.totalBids += 1;\n\n\t\treturn true;\n\t}\n\n\tfunction revealBid(uint _productId, string _amount, string _secret) public {\n\t\tProduct storage product = stores[productIdInStore[_productId]][_productId];\n\t\trequire(now > product.auctionEndTime);\n\t\tbytes32 sealedBid = sha3(_amount, _secret);\n\n\t\tBid memory bidInfo = product.bids[msg.sender][sealedBid];\n\t\trequire(bidInfo.bidder > 0);\n\t\trequire(bidInfo.revealed == false);\n\n\t\tuint refund;\n\n\t\tuint amount = stringToUint(_amount);\n\n\t\tif (bidInfo.value < amount) {\n\t\t\trefund = bidInfo.value;\n\t\t} else {\n\t\t\t// if first to reveal a bid\n\t\t\tif (address(product.highestBidder) == 0) {\n\t\t\t\tproduct.highestBidder = msg.sender;\n\t\t\t\tproduct.highestBid = amount;\n\t\t\t\tproduct.secondHighestBid = product.startPrice;\n\t\t\t\trefund = bidInfo.value - amount;\n\t\t\t} else {\n\t\t\t\tif (amount > product.highestBid) {\n\t\t\t\t\tproduct.secondHighestBid = product.highestBid;\n\t\t\t\t\tproduct.highestBidder.transfer(product.highestBid);\n\t\t\t\t\tproduct.highestBidder = msg.sender;\n\t\t\t\t\tproduct.highestBid = amount;\n\t\t\t\t\trefund = bidInfo.value - amount;\n\t\t\t\t} else if (amount > product.secondHighestBid) {\n\t\t\t\t\tproduct.secondHighestBid = amount;\n\t\t\t\t\trefund = bidInfo.value;\n\t\t\t\t} else {\n\t\t\t\t\trefund = bidInfo.value;\n\t\t\t\t}\n\t\t\t}\n\t\t}\n\n\t\tif (refund > 0) {\n\t\t\tmsg.sender.transfer(refund);\n\t\t\tproduct.bids[msg.sender][sealedBid].revealed = true;\n\t\t}\n\t}\n\n\n\t// helper functions\n\tfunction highestBidderInfo(uint _productId) view public returns (address, uint, uint) {\n\t\tProduct memory product = stores[productIdInStore[_productId]][_productId];\n\t\treturn (product.highestBidder, product.highestBid, product.secondHighestBid);\n\t}\n\n\tfunction totalBids(uint _productId) view public returns (uint) {\n\t\tProduct memory product = stores[productIdInStore[_productId]][_productId];\n\t\treturn product.totalBids;\n\t}\n\n\tfunction stringToUint(string s) pure private returns (uint) {\n\t\tbytes memory b = bytes(s);\n\t\tuint result = 0;\n\t\tfor (uint i = 0; i < b.length; i++) {\n\t\t\tif (b[i] >= 48 && b[i] <= 57) {\n\t\t\t\tresult = result * 10 + (uint(b[i]) - 48);\n\t\t\t}\n\t\t}\n\n\t\treturn result;\n\t}\n}\n\n\n\n\n\n\n\n\n\n\n\n",
  "sourcePath": "/Users/daniel/Programs/ebay_dapp/contracts/EcommerceStore.sol",
  "schemaVersion": "1.0.0",
  "updatedAt": "2018-02-01T23:44:27.512Z"
}